:100000000C9446000C9465000C9465000C946500FB
:100010000C9465000C9465000C9465000C946500CC
:100020000C9465000C9465000C9465000C946500BC
:100030000C9465000C940C010C9465000C94650004
:100040000C9465000C9465000C9465000C9465009C
:100050000C9465000C9465000C9465000C9465008C
:100060000C9465000C9465000C9465000C9465007C
:100070000C9465000C9465000C9465000C9465006C
:100080000C9465000C9465000C94650011241FBE4F
:10009000CFEFD0E4DEBFCDBF11E0A0E0B1E0EEEAEB
:1000A000F4E000E00BBF02C007900D92A231B1074F
:1000B000D9F721E0A2E1B1E001C01D92AB31B20756
:1000C000E1F70E941E020C9455020C940000CF939D
:1000D000DF9300D01F92CDB7DEB789837B836A831D
:1000E00089818A3031F48A819B81BC018DE00E9434
:1000F000670080EC90E0FC018081882F90E08072A6
:100100009927892BB1F386EC90E02981FC012083AB
:1001100080E090E00F900F900F90DF91CF910895C5
:10012000CF93DF9300D000D0CDB7DEB769837A8359
:100130008B839C8389819A81AB81BC8180930E01E2
:1001400090930F01A0931001B093110180910E01C3
:1001500090910F01A0911001B091110180931301B2
:1001600090931401A0931501B093160100000F9015
:100170000F900F900F90DF91CF910895CF93DF9361
:10018000CDB7DEB781E890E02BE0FC01208388E862
:1001900090E02DE730E0FC01318320838FE690E092
:1001A00022E0FC01208384E890E0FC0111821082AF
:1001B00080910E0190910F01A0911001B091110159
:1001C0008093130190931401A0931501B09316012D
:1001D0008FE590E02FE530E0F90120812068FC01F7
:1001E00020830000DF91CF910895CF93DF93CDB7A7
:1001F000DEB781E890E0FC0110820000DF91CF9132
:100200000895CF93DF93CDB7DEB781E080931201DD
:100210000000DF91CF9108951F920F9200905F0030
:100220000F92112400905B000F922F933F934F93F6
:100230005F936F937F938F939F93AF93BF93EF934E
:10024000FF93CF93DF93CDB7DEB7809113019091E9
:100250001401A0911501B09116010197A109B109EE
:100260008093130190931401A0931501B09316018C
:100270008091130190911401A0911501B091160184
:10028000892B8A2B8B2B91F40E94010180910E0106
:1002900090910F01A0911001B09111018093130171
:1002A00090931401A0931501B09316010000DF9103
:1002B000CF91FF91EF91BF91AF919F918F917F91DE
:1002C0006F915F914F913F912F910F9000925B0042
:1002D0000F9000925F000F901F901895CF93DF93BF
:1002E000CDB7DEB780911801909119018130910549
:1002F00089F08130910538F08230910511F1039732
:1003000009F44BC060C081E090E0909319018093A4
:10031000180163C080911701882339F482E090E0CE
:10032000909319018093180153C080911701813077
:1003300009F04EC081E090E090931901809318017C
:1003400047C080911701882361F480911A01817060
:10035000882339F083E090E090931901809318018D
:100360001BC080911701882361F480911A0181706C
:10037000882339F481E090E090931901809318016B
:100380000BC080911701813029F582E090E09093B5
:100390001901809318011EC01DC080911701882388
:1003A00039F482E090E0909319018093180114C011
:1003B00080911701813081F483E090E090931901DE
:1003C0008093180109C0109219011092180105C0FC
:1003D000000003C0000001C000008091180190914E
:1003E00019018130910549F08130910510F1823079
:1003F000910571F0039791F01DC085E290E021E036
:10040000FC01208380911A018F5F80931A0112C032
:1004100085E290E022E0FC0120830CC085E290E0C0
:1004200024E0FC01208380911A018F5F80931A01E0
:1004300001C000000000DF91CF910895CF93DF93BA
:10044000CDB7DEB781E290E0FC01108282E290E05D
:100450002FEFFC01208384E290E02FEFFC0120834A
:1004600085E290E0FC0110821092170110921A01AF
:10047000109219011092180168EC70E080E090E091
:100480000E9490000E94BE0080E290E0FC0180810A
:100490008095809317010E946E01000080911201E7
:0E04A0008823E1F310921201EFCFF894FFCF02
:1004AE0000000002000000006700000000000100D4
:0204BE0000003C
:00000001FF
