:100000000C944D000C946C000C946C000C946C00DF
:100010000C946C000C946C000C946C000C946C00B0
:100020000C946C000C946C000C946C000C946C00A0
:100030000C946C000C9413010C946C000C946C00E8
:100040000C946C000C946C000C946C000C946C0080
:100050000C946C000C946C000C946C000C946C0070
:100060000C946C000C946C000C946C000C946C0060
:100070000C946C000C946C000C946C000C946C0050
:100080000C946C000C946C000C946C008F01960125
:10009000B8010602BF010D02540211241FBECFEFAA
:1000A000D0E4DEBFCDBF11E0A0E0B1E0E8E2F6E0D1
:1000B00000E00BBF02C007900D92A231B107D9F743
:1000C00021E0A2E1B1E001C01D92AC31B207E1F73D
:1000D0000E94C8020C9412030C940000CF93DF938B
:1000E00000D01F92CDB7DEB789837B836A83898175
:1000F0008A3031F48A819B81BC018DE00E946E00C0
:1001000080EC90E0FC018081882F90E0807299273C
:10011000892BB1F386EC90E02981FC01208380E0FB
:1001200090E00F900F900F90DF91CF910895CF93B3
:10013000DF9300D000D0CDB7DEB769837A838B839D
:100140009C8389819A81AB81BC8180930E019093BD
:100150000F01A0931001B093110180910E019091B5
:100160000F01A0911001B0911101809313019093A0
:100170001401A0931501B093160100000F900F9089
:100180000F900F90DF91CF910895CF93DF93CDB76C
:10019000DEB781E890E02BE0FC01208388E890E066
:1001A0002DE730E0FC01318320838FE690E022E0F0
:1001B000FC01208384E890E0FC0111821082809190
:1001C0000E0190910F01A0911001B0911101809347
:1001D000130190931401A0931501B09316018FE5BC
:1001E00090E02FE530E0F90120812068FC012083B8
:1001F0000000DF91CF910895CF93DF93CDB7DEB7A5
:1002000081E890E0FC0110820000DF91CF91089519
:10021000CF93DF93CDB7DEB781E08093120100006A
:10022000DF91CF9108951F920F9200905F000F927F
:10023000112400905B000F922F933F934F935F9395
:100240006F937F938F939F93AF93BF93EF93FF939E
:10025000CF93DF93CDB7DEB7809113019091140156
:10026000A0911501B09116010197A109B1098093E0
:10027000130190931401A0931501B093160180917E
:10028000130190911401A0911501B0911601892BD1
:100290008A2B8B2B91F40E94080180910E01909182
:1002A0000F01A0911001B09111018093130190935F
:1002B0001401A0931501B09316010000DF91CF91B6
:1002C000FF91EF91BF91AF919F918F917F916F912E
:1002D0005F914F913F912F910F9000925B000F9093
:1002E00000925F000F901F901895CF93DF93CDB7CA
:1002F000DEB78091180190911901CC01A0E0B0E027
:1003000040E050E026E030E0841B950B28173907C9
:1003100008F4EBC08A5B9F4FFC010C94090381E059
:1003200090E09093190180931801E7C08091170124
:10033000813039F482E090E09093190180931801A4
:10034000D9C080911701823039F483E090E0909316
:10035000190180931801CEC080911701833009F0F4
:10036000C9C086E090E09093190180931801C2C043
:1003700084E090E09093190180931801BEC08091B1
:100380001701823039F483E090E090931901809353
:100390001801B3C080911701833039F486E090E0F2
:1003A0009093190180931801A8C0809117018823A8
:1003B00039F481E090E090931901809318019DC079
:1003C00080911701813059F480911B01882339F005
:1003D00084E090E0909319018093180116C08091F9
:1003E0001701813059F480911B01882339F482E090
:1003F00090E0909319018093180107C084E090E089
:10040000909319018093180178C077C085E090E03F
:10041000909319018093180170C080911701833067
:1004200039F486E090E0909319018093180165C03B
:1004300080911701882339F481E090E090931901AD
:10044000809318015AC080911701813039F482E0FD
:1004500090E090931901809318014FC0809117018B
:10046000823059F480911B01882339F085E090E0B7
:10047000909319018093180116C080911701823062
:1004800059F480911B01882339F483E090E0909324
:1004900019018093180107C085E090E0909319013D
:1004A000809318012AC029C080911701833039F444
:1004B00086E090E090931901809318011DC080910F
:1004C0001701813039F482E090E090931901809314
:1004D000180112C080911701823071F483E090E01E
:1004E000909319018093180107C01092190110927E
:1004F000180103C0000001C0000080911801909114
:10050000190183309105F9F08430910530F4813080
:100510009105A9F1029751F037C08530910531F16D
:1005200085309105E8F0069739F12EC08AE0809376
:100530001B0180911A01893020F580911A018F5F8B
:1005400080931A011EC08AE080931B0180911A01DA
:100550008823C9F080911A01815080931A0113C039
:1005600080911B01815080931B010EC080911B0163
:10057000815080931B0108C010921A0105C0000031
:1005800003C0000001C000000000DF91CF9108957A
:10059000CF93DF93CDB7DEB781E290E0FC0110820C
:1005A00082E290E02FEFFC01208384E290E02FEFC5
:1005B000FC01208385E290E0FC011082109217017B
:1005C0008AE080931B016AE070E080E090E00E9486
:1005D00097000E94C500109219011092180187E03F
:1005E00080931A0180E290E0FC01808180958093E5
:1005F00017010E94750185E290E020911A01FC012B
:1006000020830000809112018823E1F310921201EF
:10061000E9CFEE0FFF1F0024001C0BBE0790F691E0
:08062000E02D0994F894FFCFCE
:1006280000000002000000006E0000000000010051
:020638000000C0
:00000001FF
