:100000000C9454000C9473000C9473000C947300C3
:100010000C9473000C9473000C9473000C94730094
:100020000C9473000C9473000C9473000C94730084
:100030000C9473000C941A010C9473000C947300CC
:100040000C9473000C9473000C9473000C94730064
:100050000C9473000C9473000C9473000C94730054
:100060000C9473000C9473000C9473000C94730044
:100070000C9473000C9473000C9473000C94730034
:100080000C9473000C9473000C94730096019D0102
:10009000B401CB01F80125023B02A60276028102DF
:1000A00087028D0293029E0211241FBECFEFD0E47F
:1000B000DEBFCDBF11E0A0E0B1E0EAEDF5E000E089
:1000C0000BBF02C007900D92A231B107D9F721E012
:1000D000A2E1B1E001C01D92AB31B207E1F70E948D
:1000E000AB020C94EB020C940000CF93DF9300D092
:1000F0001F92CDB7DEB789837B836A8389818A307B
:1001000031F48A819B81BC018DE00E94750080ECF6
:1001100090E0FC018081882F90E080729927892BE4
:10012000B1F386EC90E02981FC01208380E090E02F
:100130000F900F900F90DF91CF910895CF93DF93A1
:1001400000D000D0CDB7DEB769837A838B839C83E0
:1001500089819A81AB81BC8180930E0190930F01BC
:10016000A0931001B093110180910E0190910F01A5
:10017000A0911001B091110180931301909314018B
:10018000A0931501B093160100000F900F900F90EF
:100190000F90DF91CF910895CF93DF93CDB7DEB766
:1001A00081E890E02BE0FC01208388E890E02DE7D7
:1001B00030E0FC01318320838FE690E022E0FC01F7
:1001C000208384E890E0FC011182108280910E016E
:1001D00090910F01A0911001B09111018093130132
:1001E00090931401A0931501B09316018FE590E050
:1001F0002FE530E0F90120812068FC012083000018
:10020000DF91CF910895CF93DF93CDB7DEB781E82B
:1002100090E0FC0110820000DF91CF910895CF9310
:10022000DF93CDB7DEB781E0809312010000DF914C
:10023000CF9108951F920F9200905F000F921124AA
:1002400000905B000F922F933F934F935F936F93B8
:100250007F938F939F93AF93BF93EF93FF93CF932E
:10026000DF93CDB7DEB78091130190911401A09177
:100270001501B09116010197A109B10980931301ED
:1002800090931401A0931501B0931601809113016E
:1002900090911401A0911501B0911601892B8A2B20
:1002A0008B2B91F40E940F0180910E0190910F0110
:1002B000A0911001B091110180931301909314014A
:1002C000A0931501B09316010000DF91CF91FF912B
:1002D000EF91BF91AF919F918F917F916F915F91BE
:1002E0004F913F912F910F9000925B000F900092E1
:1002F0005F000F901F901895CF93DF93CDB7DEB7B7
:100300008091180190911901CC01A0E0B0E040E08B
:1003100050E026E030E0841B950B2817390708F4DD
:10032000C0C08A5B9F4FFC010C94E20281E090E028
:100330009093190180931801C4C0809117018823FC
:1003400039F483E090E09093190180931801AEC0D6
:1003500080911701813009F0A9C082E090E090936C
:10036000190180931801A2C080911701882339F4E4
:1003700082E090E0909319018093180199C08091D8
:100380001701813009F094C083E090E09093190147
:10039000809318018DC080911701882361F48091AA
:1003A0001A018170882339F085E090E0909319015B
:1003B000809318011CC080911701882361F48091FB
:1003C0001A018170882339F481E090E0909319013B
:1003D000809318010CC080911701813009F06AC028
:1003E00084E090E0909319018093180163C062C08B
:1003F00080911701882339F484E090E090931901EB
:100400008093180159C080911701813061F4809167
:100410001A018170882339F085E090E090931901EA
:100420008093180149C080911701813009F044C0C0
:1004300080911A018170882309F03EC081E090E02C
:10044000909319018093180137C080911701882378
:1004500039F483E090E090931901809318012EC045
:1004600080911701813051F586E090E09093190159
:100470008093180123C080911701882339F486E006
:1004800090E090931901809318011AC08091170190
:100490008130B1F483E090E09093190180931801CA
:1004A0000FC010921901109218010BC0000009C072
:1004B000000007C0000005C0000003C0000001C02C
:1004C00000008091180190911901CC01A0E0B0E0EA
:1004D00040E050E026E030E0841B950B28173907F8
:1004E00098F1835B9F4FFC010C94E20285E290E05F
:1004F00021E0FC01208380911A018F5F80931A0113
:1005000026C085E290E021E0FC01208320C085E246
:1005100090E022E0FC0120831AC085E290E022E016
:10052000FC01208314C085E290E024E0FC012083DC
:1005300080911A018F5F80931A0109C085E290E0D3
:1005400024E0FC01208303C0000001C00000000083
:10055000DF91CF910895CF93DF93CDB7DEB781E2DE
:1005600090E0FC01108282E290E02FEFFC012083FA
:1005700084E290E02FEFFC01208385E290E0FC0113
:1005800010821092170110921A0110921901109204
:1005900018016EE170E080E090E00E949E000E94F1
:1005A000CC0080E290E0FC0180818095809317016F
:1005B0000E947C010000809112018823E1F31092D7
:1005C0001201EFCFEE0FFF1F0024001C0BBE07909F
:0A05D000F691E02D0994F894FFCF96
:1005DA000000000200000000750000000000010099
:0205EA0000000F
:00000001FF
